{
  "contractName": "Marketplace",
  "abi": [
    {
      "constant": true,
      "inputs": [],
      "name": "name",
      "outputs": [
        {
          "name": "",
          "type": "string"
        }
      ],
      "payable": false,
      "stateMutability": "view",
      "type": "function",
      "signature": "0x06fdde03"
    },
    {
      "constant": true,
      "inputs": [],
      "name": "company_address",
      "outputs": [
        {
          "name": "",
          "type": "address"
        }
      ],
      "payable": false,
      "stateMutability": "view",
      "type": "function",
      "signature": "0x35a28eb3"
    },
    {
      "constant": true,
      "inputs": [
        {
          "name": "",
          "type": "uint256"
        }
      ],
      "name": "products",
      "outputs": [
        {
          "name": "id",
          "type": "uint256"
        },
        {
          "name": "name",
          "type": "string"
        },
        {
          "name": "email",
          "type": "string"
        },
        {
          "name": "latitude",
          "type": "string"
        },
        {
          "name": "longitude",
          "type": "string"
        },
        {
          "name": "price",
          "type": "uint256"
        },
        {
          "name": "owner",
          "type": "address"
        },
        {
          "name": "purchased",
          "type": "bool"
        }
      ],
      "payable": false,
      "stateMutability": "view",
      "type": "function",
      "signature": "0x7acc0b20"
    },
    {
      "constant": true,
      "inputs": [],
      "name": "productCount",
      "outputs": [
        {
          "name": "",
          "type": "uint256"
        }
      ],
      "payable": false,
      "stateMutability": "view",
      "type": "function",
      "signature": "0xe0f6ef87"
    },
    {
      "inputs": [],
      "payable": false,
      "stateMutability": "nonpayable",
      "type": "constructor",
      "signature": "constructor"
    },
    {
      "anonymous": false,
      "inputs": [
        {
          "indexed": false,
          "name": "id",
          "type": "uint256"
        },
        {
          "indexed": false,
          "name": "name",
          "type": "string"
        },
        {
          "indexed": false,
          "name": "email",
          "type": "string"
        },
        {
          "indexed": false,
          "name": "latitude",
          "type": "string"
        },
        {
          "indexed": false,
          "name": "longitude",
          "type": "string"
        },
        {
          "indexed": false,
          "name": "price",
          "type": "uint256"
        },
        {
          "indexed": false,
          "name": "owner",
          "type": "address"
        },
        {
          "indexed": false,
          "name": "purchased",
          "type": "bool"
        }
      ],
      "name": "ProductCreated",
      "type": "event",
      "signature": "0xdbb713186cbcfde131b872a99e973d10bd26f42b4b07417dae5fc0f3cc148aca"
    },
    {
      "anonymous": false,
      "inputs": [
        {
          "indexed": false,
          "name": "id",
          "type": "uint256"
        },
        {
          "indexed": false,
          "name": "name",
          "type": "string"
        },
        {
          "indexed": false,
          "name": "email",
          "type": "string"
        },
        {
          "indexed": false,
          "name": "latitude",
          "type": "string"
        },
        {
          "indexed": false,
          "name": "longitude",
          "type": "string"
        },
        {
          "indexed": false,
          "name": "price",
          "type": "uint256"
        },
        {
          "indexed": false,
          "name": "owner",
          "type": "address"
        },
        {
          "indexed": false,
          "name": "purchased",
          "type": "bool"
        }
      ],
      "name": "ProductPurchased",
      "type": "event",
      "signature": "0x39dafa59bdee3543f0b82d46f749ef045766e7e11292428ac0814ac7f9f48ca7"
    },
    {
      "constant": false,
      "inputs": [
        {
          "name": "_name",
          "type": "string"
        },
        {
          "name": "_email",
          "type": "string"
        },
        {
          "name": "_latitude",
          "type": "string"
        },
        {
          "name": "_longitude",
          "type": "string"
        },
        {
          "name": "_price",
          "type": "uint256"
        }
      ],
      "name": "createProduct",
      "outputs": [],
      "payable": true,
      "stateMutability": "payable",
      "type": "function",
      "signature": "0x17aaba59"
    }
  ],
  "bytecode": "0x608060405260006001553480156200001657600080fd5b50606060405190810160405280602281526020017f456172746820322e30204c616e6420426c6f636b636861696e2052656769737481526020017f7279000000000000000000000000000000000000000000000000000000000000815250600090805190602001906200008b929190620000d3565b5033600260006101000a81548173ffffffffffffffffffffffffffffffffffffffff021916908373ffffffffffffffffffffffffffffffffffffffff16021790555062000182565b828054600181600116156101000203166002900490600052602060002090601f016020900481019282601f106200011657805160ff191683800117855562000147565b8280016001018555821562000147579182015b828111156200014657825182559160200191906001019062000129565b5b5090506200015691906200015a565b5090565b6200017f91905b808211156200017b57600081600090555060010162000161565b5090565b90565b61170f80620001926000396000f3fe60806040526004361061006d576000357c0100000000000000000000000000000000000000000000000000000000900463ffffffff16806306fdde031461007257806317aaba591461010257806335a28eb31461038c5780637acc0b20146103e3578063e0f6ef8714610627575b600080fd5b34801561007e57600080fd5b50610087610652565b6040518080602001828103825283818151815260200191508051906020019080838360005b838110156100c75780820151818401526020810190506100ac565b50505050905090810190601f1680156100f45780820380516001836020036101000a031916815260200191505b509250505060405180910390f35b61038a600480360360a081101561011857600080fd5b810190808035906020019064010000000081111561013557600080fd5b82018360208201111561014757600080fd5b8035906020019184600183028401116401000000008311171561016957600080fd5b91908080601f016020809104026020016040519081016040528093929190818152602001838380828437600081840152601f19601f820116905080830192505050505050509192919290803590602001906401000000008111156101cc57600080fd5b8201836020820111156101de57600080fd5b8035906020019184600183028401116401000000008311171561020057600080fd5b91908080601f016020809104026020016040519081016040528093929190818152602001838380828437600081840152601f19601f8201169050808301925050505050505091929192908035906020019064010000000081111561026357600080fd5b82018360208201111561027557600080fd5b8035906020019184600183028401116401000000008311171561029757600080fd5b91908080601f016020809104026020016040519081016040528093929190818152602001838380828437600081840152601f19601f820116905080830192505050505050509192919290803590602001906401000000008111156102fa57600080fd5b82018360208201111561030c57600080fd5b8035906020019184600183028401116401000000008311171561032e57600080fd5b91908080601f016020809104026020016040519081016040528093929190818152602001838380828437600081840152601f19601f820116905080830192505050505050509192919290803590602001909291905050506106f0565b005b34801561039857600080fd5b506103a16112df565b604051808273ffffffffffffffffffffffffffffffffffffffff1673ffffffffffffffffffffffffffffffffffffffff16815260200191505060405180910390f35b3480156103ef57600080fd5b5061041c6004803603602081101561040657600080fd5b8101908080359060200190929190505050611305565b60405180898152602001806020018060200180602001806020018881526020018773ffffffffffffffffffffffffffffffffffffffff1673ffffffffffffffffffffffffffffffffffffffff1681526020018615151515815260200185810385528c818151815260200191508051906020019080838360005b838110156104b0578082015181840152602081019050610495565b50505050905090810190601f1680156104dd5780820380516001836020036101000a031916815260200191505b5085810384528b818151815260200191508051906020019080838360005b838110156105165780820151818401526020810190506104fb565b50505050905090810190601f1680156105435780820380516001836020036101000a031916815260200191505b5085810383528a818151815260200191508051906020019080838360005b8381101561057c578082015181840152602081019050610561565b50505050905090810190601f1680156105a95780820380516001836020036101000a031916815260200191505b50858103825289818151815260200191508051906020019080838360005b838110156105e25780820151818401526020810190506105c7565b50505050905090810190601f16801561060f5780820380516001836020036101000a031916815260200191505b509c5050505050505050505050505060405180910390f35b34801561063357600080fd5b5061063c6115da565b6040518082815260200191505060405180910390f35b60008054600181600116156101000203166002900480601f0160208091040260200160405190810160405280929190818152602001828054600181600116156101000203166002900480156106e85780601f106106bd576101008083540402835291602001916106e8565b820191906000526020600020905b8154815290600101906020018083116106cb57829003601f168201915b505050505081565b6000835111151561070057600080fd5b6000825111151561071057600080fd5b6000855111151561072057600080fd5b6000845111151561073057600080fd5b60008111151561073f57600080fd5b600160008154809291906001019190505550610100604051908101604052806001548152602001606060405190810160405280602281526020017f456172746820322e30204c616e6420426c6f636b636861696e2052656769737481526020017f727900000000000000000000000000000000000000000000000000000000000081525081526020016040805190810160405280600281526020017f3a290000000000000000000000000000000000000000000000000000000000008152508152602001848152602001838152602001828152602001600260009054906101000a900473ffffffffffffffffffffffffffffffffffffffff1673ffffffffffffffffffffffffffffffffffffffff168152602001600015158152506003600060015481526020019081526020016000206000820151816000015560208201518160010190805190602001906108959291906115e0565b5060408201518160020190805190602001906108b29291906115e0565b5060608201518160030190805190602001906108cf9291906115e0565b5060808201518160040190805190602001906108ec9291906115e0565b5060a0820151816005015560c08201518160060160006101000a81548173ffffffffffffffffffffffffffffffffffffffff021916908373ffffffffffffffffffffffffffffffffffffffff16021790555060e08201518160060160146101000a81548160ff0219169083151502179055509050507fdbb713186cbcfde131b872a99e973d10bd26f42b4b07417dae5fc0f3cc148aca600154848484600260009054906101000a900473ffffffffffffffffffffffffffffffffffffffff16600060405180878152602001806020018060200180602001806020018881526020018773ffffffffffffffffffffffffffffffffffffffff1673ffffffffffffffffffffffffffffffffffffffff16815260200186151515158152602001858103855260228152602001807f456172746820322e30204c616e6420426c6f636b636861696e2052656769737481526020017f7279000000000000000000000000000000000000000000000000000000000000815250604001858103845260028152602001807f3a2900000000000000000000000000000000000000000000000000000000000081525060200185810383528a818151815260200191508051906020019080838360005b83811015610acf578082015181840152602081019050610ab4565b50505050905090810190601f168015610afc5780820380516001836020036101000a031916815260200191505b50858103825289818151815260200191508051906020019080838360005b83811015610b35578082015181840152602081019050610b1a565b50505050905090810190601f168015610b625780820380516001836020036101000a031916815260200191505b509a505050505050505050505060405180910390a1610b7f611660565b600360006001548152602001908152602001600020610100604051908101604052908160008201548152602001600182018054600181600116156101000203166002900480601f016020809104026020016040519081016040528092919081815260200182805460018160011615610100020316600290048015610c445780601f10610c1957610100808354040283529160200191610c44565b820191906000526020600020905b815481529060010190602001808311610c2757829003601f168201915b50505050508152602001600282018054600181600116156101000203166002900480601f016020809104026020016040519081016040528092919081815260200182805460018160011615610100020316600290048015610ce65780601f10610cbb57610100808354040283529160200191610ce6565b820191906000526020600020905b815481529060010190602001808311610cc957829003601f168201915b50505050508152602001600382018054600181600116156101000203166002900480601f016020809104026020016040519081016040528092919081815260200182805460018160011615610100020316600290048015610d885780601f10610d5d57610100808354040283529160200191610d88565b820191906000526020600020905b815481529060010190602001808311610d6b57829003601f168201915b50505050508152602001600482018054600181600116156101000203166002900480601f016020809104026020016040519081016040528092919081815260200182805460018160011615610100020316600290048015610e2a5780601f10610dff57610100808354040283529160200191610e2a565b820191906000526020600020905b815481529060010190602001808311610e0d57829003601f168201915b50505050508152602001600582015481526020016006820160009054906101000a900473ffffffffffffffffffffffffffffffffffffffff1673ffffffffffffffffffffffffffffffffffffffff1673ffffffffffffffffffffffffffffffffffffffff1681526020016006820160149054906101000a900460ff16151515158152505090506000600260009054906101000a900473ffffffffffffffffffffffffffffffffffffffff1690508160a001513410151515610eea57600080fd5b868260200181905250858260400181905250338260c0019073ffffffffffffffffffffffffffffffffffffffff16908173ffffffffffffffffffffffffffffffffffffffff168152505060018260e001901515908115158152505081600360006001548152602001908152602001600020600082015181600001556020820151816001019080519060200190610f819291906115e0565b506040820151816002019080519060200190610f9e9291906115e0565b506060820151816003019080519060200190610fbb9291906115e0565b506080820151816004019080519060200190610fd89291906115e0565b5060a0820151816005015560c08201518160060160006101000a81548173ffffffffffffffffffffffffffffffffffffffff021916908373ffffffffffffffffffffffffffffffffffffffff16021790555060e08201518160060160146101000a81548160ff0219169083151502179055509050508073ffffffffffffffffffffffffffffffffffffffff166108fc349081150290604051600060405180830381858888f19350505050158015611093573d6000803e3d6000fd5b507f39dafa59bdee3543f0b82d46f749ef045766e7e11292428ac0814ac7f9f48ca76001548888856060015186608001518760a0015133600160405180898152602001806020018060200180602001806020018881526020018773ffffffffffffffffffffffffffffffffffffffff1673ffffffffffffffffffffffffffffffffffffffff1681526020018615151515815260200185810385528c818151815260200191508051906020019080838360005b83811015611160578082015181840152602081019050611145565b50505050905090810190601f16801561118d5780820380516001836020036101000a031916815260200191505b5085810384528b818151815260200191508051906020019080838360005b838110156111c65780820151818401526020810190506111ab565b50505050905090810190601f1680156111f35780820380516001836020036101000a031916815260200191505b5085810383528a818151815260200191508051906020019080838360005b8381101561122c578082015181840152602081019050611211565b50505050905090810190601f1680156112595780820380516001836020036101000a031916815260200191505b50858103825289818151815260200191508051906020019080838360005b83811015611292578082015181840152602081019050611277565b50505050905090810190601f1680156112bf5780820380516001836020036101000a031916815260200191505b509c5050505050505050505050505060405180910390a150505050505050565b600260009054906101000a900473ffffffffffffffffffffffffffffffffffffffff1681565b6003602052806000526040600020600091509050806000015490806001018054600181600116156101000203166002900480601f0160208091040260200160405190810160405280929190818152602001828054600181600116156101000203166002900480156113b75780601f1061138c576101008083540402835291602001916113b7565b820191906000526020600020905b81548152906001019060200180831161139a57829003601f168201915b505050505090806002018054600181600116156101000203166002900480601f0160208091040260200160405190810160405280929190818152602001828054600181600116156101000203166002900480156114555780601f1061142a57610100808354040283529160200191611455565b820191906000526020600020905b81548152906001019060200180831161143857829003601f168201915b505050505090806003018054600181600116156101000203166002900480601f0160208091040260200160405190810160405280929190818152602001828054600181600116156101000203166002900480156114f35780601f106114c8576101008083540402835291602001916114f3565b820191906000526020600020905b8154815290600101906020018083116114d657829003601f168201915b505050505090806004018054600181600116156101000203166002900480601f0160208091040260200160405190810160405280929190818152602001828054600181600116156101000203166002900480156115915780601f1061156657610100808354040283529160200191611591565b820191906000526020600020905b81548152906001019060200180831161157457829003601f168201915b5050505050908060050154908060060160009054906101000a900473ffffffffffffffffffffffffffffffffffffffff16908060060160149054906101000a900460ff16905088565b60015481565b828054600181600116156101000203166002900490600052602060002090601f016020900481019282601f1061162157805160ff191683800117855561164f565b8280016001018555821561164f579182015b8281111561164e578251825591602001919060010190611633565b5b50905061165c91906116be565b5090565b61010060405190810160405280600081526020016060815260200160608152602001606081526020016060815260200160008152602001600073ffffffffffffffffffffffffffffffffffffffff1681526020016000151581525090565b6116e091905b808211156116dc5760008160009055506001016116c4565b5090565b9056fea165627a7a723058201f46eef46a602d4b6b1d95e5a3c0f7ad37255ad1f083ba722162911055001ee30029",
  "source": "pragma solidity ^0.5.0;\n\ncontract Marketplace {\n    string public name;\n    uint public productCount = 0;\n    address payable public company_address;\n    mapping(uint => Product) public products;\n\n    struct Product {\n        uint id;\n        string name;\n        string email;\n        string latitude;\n        string longitude;\n        uint price;\n        address payable owner;\n        bool purchased;\n    }\n\n    event ProductCreated(\n        uint id,\n        string name,\n        string email,\n        string latitude,\n        string longitude,\n        uint price,\n        address payable owner,\n        bool purchased\n    );\n\n    event ProductPurchased(\n        uint id,\n        string name,\n        string email,\n        string latitude,\n        string longitude,\n        uint price,\n        address payable owner,\n        bool purchased\n    );\n\n    constructor() public {\n        name = \"Earth 2.0 Land Blockchain Registry\";\n        company_address = msg.sender;\n    }\n\n    function createProduct  (string memory _name,string memory _email,string memory _latitude,string memory _longitude, uint _price) public payable {\n        // Require a valid latitude , longitude\n        require(bytes(_latitude).length > 0);\n        require(bytes(_longitude).length > 0);\n        require(bytes(_name).length > 0);\n        require(bytes(_email).length > 0);\n        // Require a valid price\n        require(_price > 0);\n        // Increment product count\n        productCount ++;\n        // Create the product\n        products[productCount] = Product(productCount, 'Earth 2.0 Land Blockchain Registry', ':)',_latitude,_longitude, _price,  company_address, false);\n        // Trigger an event\n        emit ProductCreated(productCount,'Earth 2.0 Land Blockchain Registry', ':)',_latitude,_longitude, _price,company_address, false);\n        Product memory _product = products[productCount];\n        address payable _seller = company_address;\n        require(msg.value >= _product.price);\n        _product.name= _name;\n        _product.email = _email;\n        _product.owner = msg.sender;\n        _product.purchased = true;\n        products[productCount] = _product;\n        address(_seller).transfer(msg.value);\n        emit ProductPurchased(productCount,_name,_email, _product.latitude,_product.longitude,_product.price, msg.sender, true);\n\n    }\n}\n",
  "sourcePath": "/home/kaustav1996/dapps/marketplace/src/contracts/Marketplace.sol",
  "compiler": {
    "name": "solc",
    "version": "0.5.0+commit.1d4f565a.Emscripten.clang"
  },
  "schemaVersion": "3.0.1",
  "updatedAt": "2020-06-26T06:05:47.284Z",
  "devdoc": {
    "methods": {}
  },
  "userdoc": {
    "methods": {}
  }
}